:1000000005C100000C944C150C947F150C94B2158E
:100010000C94E5150C9418160C944B160C947E1643
:100020000C94B11624C1000022C1000020C10000C0
:100030001EC100001CC100001AC1000018C1000050
:1000400016C1000014C1000012C1000010C1000060
:100050000EC100000CC100000AC100000C94E4169F
:1000600006C100000C94F1200C94212100C1000075
:10007000FEC00000FCC00000FAC00000F8C0000094
:10008000F6C00000F4C00000F2C00000F0C00000A4
:100090000C9498210C94C821EAC00000E8C000002C
:1000A000E6C00000E4C00000E2C00000E0C00000C4
:1000B000DEC00000DCC00000DAC00000D8C00000D4
:1000C000D6C00000D4C00000D2C000000C943F2273
:1000D0000C946F22CCC000000C94E6220C941623E2
:1000E000C6C0000000002100240027002A002D00C7
:1000F0003000330001010000040107010A01000083
:100100002200250028002B002E00310034000201BF
:100110000000050108010B0100002000230026005B
:1001200029002C002F00320000010000030106010D
:10013000090105050505070508080808020202026D
:100140000A0A080804040404010101010101010173
:100150000303030303030303040707070C0C0C0C3E
:100160000C0C0C0C02020202060606060606060627
:100170000B0B0B0B0B0B0B0B0102102020080810B4
:100180002040102040800201020108040201010207
:1001900004081020408080402010080402018004E0
:1001A000020180402010080402010804020101023B
:1001B0000408102040800102040810204080000044
:1001C0000A0B02090C0D0E080703040100000000D1
:1001D000000000000000000000000000000000001F
:1001E00000000000000000000000121110000000DC
:1001F00000000000000000000000000000000000FF
:10020000000000008C213322DA22832311241FBE38
:10021000CFEFD1E2DEBFCDBF00E00CBF13E0A0E026
:10022000B2E0EEE1F8E400E00BBF02C007900D92EF
:10023000A031B107D9F726E0A0E1B3E001C01D92DB
:10024000AF38B207E1F711E0C6E0D1E000E006C048
:1002500021970109802FFE010E940124C230D1079D
:1002600080E00807A9F70E94B0110C940D24C8CEB5
:10027000CF93DF931F921F92CDB7DEB789836A8336
:100280008A81882329F460E089810E940D1A0CC0BC
:100290008A81813029F461E089810E940D1A04C0AD
:1002A00062E089810E940D1A00000F900F90DF918B
:1002B000CF910895CF93DF931F921F92CDB7DEB7F2
:1002C00089836A838A81882329F061E089810E9479
:1002D000AC1B04C060E089810E94AC1B00000F9041
:1002E0000F90DF91CF910895EF92FF920F931F939C
:1002F000CF93DF93CDB7DEB72C970FB6F894DEBF60
:100300000FBECDBF69837A838B839C832D833E830D
:100310004F835887E986FA860B871C87898161E0BD
:100320000E940D1A89819A8101969C0189819A8186
:10033000AB81BC81A901BC01CD01F8D020E030E047
:10034000A90169857A858B859C850E94BE13181644
:10035000BCF469857A858B859C850E948D12DC01B1
:10036000CB018C016D817E818F8198850E948D12D9
:10037000DC01CB019C0189819A81A801B90155D189
:1003800089819A8101962C960FB6F894DEBF0FBE34
:10039000CDBFDF91CF911F910F91FF90EF90089506
:1003A000CF93DF9300D000D01F92CDB7DEB79B83F1
:1003B0008A834C835D836E837F83CE010296FC012A
:1003C00080818823B9F1CE010296FC0180818150A1
:1003D000898320E030E0A9016C817D818E819F813D
:1003E0000E9484128823D4F48C819D81AE81BF81C8
:1003F000B0588C839D83AE83BF836C817D818E8159
:100400009F810E948D129B01AC018981882F90E011
:10041000A0E0B0E0BC01CD01E7D00CC06C817D81D3
:100420008E819F810E948812DC01CB01BC018981F1
:100430000E949318000027960FB6F894DEBF0FBEF7
:10044000CDBFDF91CF910895CF93DF9300D0CDB78B
:10045000DEB79B838A83CE010296FC0180818823CC
:1004600089F01982CE010296FC0180818150898336
:100470008981882F90E0A0E0B0E040E050E0BC012E
:10048000CD0154D000000F900F900F90DF91CF91CD
:100490000895CF93DF9300D000D000D0CDB7DEB762
:1004A0006E837F83888799871C821B821A821982B8
:1004B0001D828E819F81A885B985689412F8B695B2
:1004C000A795979587951694D1F79C838B838E81FA
:1004D00087708D838B819C81805F9C4FFC01408164
:1004E0008D81282F30E081E090E002C0880F991FB5
:1004F0002A95E2F78423882F90E09A838983898163
:100500009A81892B31F08E819F8101969A8389830C
:1005100002C01A82198289819A8129960FB6F894AD
:10052000DEBF0FBECDBFDF91CF910895CF93DF9394
:1005300000D000D000D01F92CDB7DEB76D837E8390
:100540008F8398875A8749871A8219821B821C8257
:100550008D819E81AF81B885689412F8B695A79574
:10056000979587951694D1F79A8389838D818770A3
:100570008B838B81282F30E081E090E002C0880FD0
:10058000991F2A95E2F78C8389859A85892B99F49E
:100590008C8180958C8389819A81805F9C4FFC013E
:1005A00090818C81292F282389819A81805F9C4F9B
:1005B000FC0120830FC089819A81805F9C4FFC01E0
:1005C00090818C81292F282B89819A81805F9C4F73
:1005D000FC01208300002A960FB6F894DEBF0FBE00
:1005E000CDBFDF91CF910895CF93DF9300D000D09E
:1005F0001F921F92CDB7DEB769837A838B839C836A
:100600002D833E834F8358878D819E812981BC0134
:10061000822F0E949318000028960FB6F894DEBF30
:100620000FBECDBFDF91CF910895CF93DF9300D060
:1006300000D000D0CDB7DEB79D838C837F836E83DF
:10064000598748878C819D8182549E4F9A838983E4
:1006500089819A81FC0184918B838B81882F90E022
:10066000092E000CAA0BBB0B0197A109B10982311D
:100670009105A105B10508F051C2FC018827EC5B8A
:10068000FC4F8F4F0C940124560360036A039403BC
:10069000BE038E05E803FE0314043E0468049204BE
:1006A000BC04E6048E0510053A05640584E490E078
:1006B000FC01208184E490E02068FC0120832EC2AC
:1006C00084E490E0FC01208184E490E02062FC015D
:1006D000208324C280E890E0FC018081282F2C7FB9
:1006E00080E890E02260FC01208381E890E0FC013A
:1006F0008081982F907E8E81292F282B81E890E091
:100700002061FC01208386E890E028853985FC0182
:100710003183208380E890E0FC01208180E890E034
:100720002068FC012083FAC180E890E0FC01808110
:10073000282F2C7F80E890E02260FC01208381E854
:1007400090E0FC018081982F907E8E81292F282BAC
:1007500081E890E02061FC01208386E890E0288514
:100760003985FC013183208380E890E0FC01208101
:1007700080E890E02062FC012083D0C180E890E016
:10078000FC018081282F2C7F80E890E02260FC0112
:10079000208381E890E0FC018081982F907E8E81FB
:1007A000292F282B81E890E02061FC01208386E836
:1007B00090E028853985FC013183208380E890E032
:1007C000FC01208180E890E02860FC012083A6C124
:1007D00080EB90E0FC01208180EB90E02068FC0140
:1007E000208381EB90E0FC018081382F387F2E81BF
:1007F00081EB90E0232BFC01208390C180EB90E003
:10080000FC01208180EB90E02062FC01208381EBE1
:1008100090E0FC018081382F387F2E8181EB90E0C1
:10082000232BFC0120837AC180E990E0FC018081C8
:10083000282F2C7F80E990E02260FC01208381E951
:1008400090E0FC018081982F907E8E81292F282BAB
:1008500081E990E02061FC01208386E990E0288511
:100860003985FC013183208380E990E0FC012081FF
:1008700080E990E02068FC01208350C180E990E08D
:10088000FC018081282F2C7F80E990E02260FC0110
:10089000208381E990E0FC018081982F907E8E81F9
:1008A000292F282B81E990E02061FC01208386E933
:1008B00090E028853985FC013183208380E990E030
:1008C000FC01208180E990E02062FC01208326C1A8
:1008D00080E990E0FC018081282F2C7F80E990E066
:1008E0002260FC01208381E990E0FC018081982F47
:1008F000907E8E81292F282B81E990E02061FC01D8
:10090000208386E990E028853985FC0131832083A6
:1009100080E990E0FC01208180E990E02860FC0102
:100920002083FCC080EA90E0FC018081282F2C7F8E
:1009300080EA90E02260FC01208381EA90E0FC01E3
:100940008081982F907E8E81292F282B81EA90E03C
:100950002061FC01208386EA90E028853985FC012E
:100960003183208380EA90E0FC01208180EA90E0DE
:100970002068FC012083D2C080EA90E0FC018081E5
:10098000282F2C7F80EA90E02260FC01208381EAFE
:1009900090E0FC018081982F907E8E81292F282B5A
:1009A00081EA90E02061FC01208386EA90E02885BE
:1009B0003985FC013183208380EA90E0FC012081AD
:1009C00080EA90E02062FC012083A8C080EA90E0E9
:1009D000FC018081282F2C7F80EA90E02260FC01BE
:1009E000208381EA90E0FC018081982F907E8E81A7
:1009F000292F282B81EA90E02061FC01208386EAE0
:100A000090E028853985FC013183208380EA90E0DD
:100A1000FC01208180EA90E02860FC0120837EC0F8
:100A200080E291E0FC018081282F2C7F80E291E020
:100A30002260FC01208381E291E0FC018081982FFB
:100A4000907E8E81292F282B81E291E02061FC018C
:100A5000208386E291E028853985FC01318320835B
:100A600080E291E0FC01208180E291E02068FC01BD
:100A7000208354C080E291E0FC018081282F2C7FEC
:100A800080E291E02260FC01208381E291E0FC01A0
:100A90008081982F907E8E81292F282B81E291E0F2
:100AA0002061FC01208386E291E028853985FC01E4
:100AB0003183208380E291E0FC01208180E291E09B
:100AC0002062FC0120832AC080E291E0FC01808149
:100AD000282F2C7F80E291E02260FC01208381E2BC
:100AE00091E0FC018081982F907E8E81292F282B08
:100AF00081E291E02061FC01208386E291E028857B
:100B00003985FC013183208380E291E0FC01208162
:100B100080E291E02860FC01208300008C8160E08D
:100B20000E94AC1B000029960FB6F894DEBF0FBEE2
:100B3000CDBFDF91CF9108950F931F93CF93DF9394
:100B400000D000D000D01F92CDB7DEB769837A8382
:100B50008B839C835E834D8338872F831A87098715
:100B600089859A85FC0180819181A281B3812F8141
:100B70003885F90180839183A283B3832D813E81DF
:100B800089819A81AB81BC81F90180839183A283A1
:100B9000B38300002A960FB6F894DEBF0FBECDBF18
:100BA000DF91CF911F910F9108950F931F93CF93D2
:100BB000DF9300D000D000D01F92CDB7DEB769839D
:100BC0007A838B839C835E834D8338872F831A8738
:100BD000098789859A85FC0180819181A281B381F1
:100BE0002F813885F90180839183A283B38389851E
:100BF0009A85FC0184819581A681B78129813A81FA
:100C00004B815C81BC01CD010E94C213DC01CB0190
:100C10002D813E81F90180839183A283B3830000FB
:100C20002A960FB6F894DEBF0FBECDBFDF91CF91ED
:100C30001F910F910895CF93DF9300D000D01F92A2
:100C40001F92CDB7DEB76D837E838F8398878D81AA
:100C50009E81AF81B885BF7720E030E040E859E55C
:100C6000BC01CD010E94841288230CF056C020E004
:100C700030E040E05FE36D817E818F8198850E9446
:100C8000BE138823BCF020E030E040E05FE36D81DC
:100C90007E818F8198850E940D12DC01CB01BC0101
:100CA000CD010E94F612DC01CB0189839A83AB83CC
:100CB000BC833BC020E030E040E05FEB6D817E8193
:100CC0008F8198850E94BE13181684F420E030E0CE
:100CD000A9016D817E818F8198850E94C213DC01FC
:100CE000CB0189839A83AB83BC831FC020E030E0B3
:100CF00040E05FE36D817E818F8198850E940C12B8
:100D0000DC01CB01BC01CD010E947112DC01CB01E1
:100D100089839A83AB83BC8308C08D819E81AF8118
:100D2000B88589839A83AB83BC8389819A81AB819F
:100D3000BC81BC01CD0128960FB6F894DEBF0FBE72
:100D4000CDBFDF91CF910895AF92BF92CF92DF9246
:100D5000EF92FF920F931F93CF93DF93CDB7DEB740
:100D6000A7970FB6F894DEBF0FBECDBF89E193E021
:100D70008E569F4FFC0180819181FC018081918181
:100D8000A281B3818E879F87A88BB98B80917B06C8
:100D900090917C069B8B8A8B80917D0690917E063C
:100DA0009D8B8C8B8A899B89FC0180819181A2819A
:100DB000B3819C01AD016E857F85888999890E94E8
:100DC000841288232CF419821A821B821C82ADC0E3
:100DD0008A899B898496FC0180819181A281B3815B
:100DE0009C01AD016E857F85888999890E94841256
:100DF000882361F48C899D89FC0184A195A1A6A119
:100E0000B7A189839A83AB83BC838FC08A899B896E
:100E10008496FC0180819181A281B3819C01AD0106
:100E20006E857F85888999890E94BE1318162CF4D7
:100E300019821A821B821C8278C080918706909149
:100E400088069B878A878A859B85880F991F880FCC
:100E5000991F2A893B89820F931FFC018081918110
:100E6000A281B3819C01AD016E857F8588899989B6
:100E70000E948412882304F505C08A859B8501970A
:100E80009B878A878A859B85880F991F880F991F62
:100E90002A893B89820F931FFC0180819181A28165
:100EA000B3819C01AD016E857F85888999890E94F7
:100EB0008412882314F320C005C08A859B8501967F
:100EC0009B878A878A859B850196880F991F880F43
:100ED000991F2A893B89820F931FFC018081918190
:100EE000A281B3819C01AD016E857F858889998936
:100EF0000E94BE1388230CF78A859B85880F991F53
:100F0000880F991F2C893D89820F931FFC018081D6
:100F10009181A281B38189839A83AB83BC838A85C3
:100F20009B85909388068093870620E030E0A90196
:100F300069817A818B819C810E94BE13181684F48A
:100F40009E012C5D3F4FAE01405E5F4F89819A81CB
:100F5000AB81BC8107EB12E0BC01CD01EDDD0FC020
:100F60009E012C5D3F4FAE01405E5F4F89819A81AB
:100F7000AB81BC810FEA12E0BC01CD0116DE8CA171
:100F80009DA1AEA1BFA1BC01CD0155DEDC01CB010D
:100F90008CA39DA3AEA3BFA38CA19DA1AEA1BFA115
:100FA00020E030E040E853E4BC01CD010E9484120F
:100FB0008823DCF48CA19DA1AEA1BFA120E030E08C
:100FC000A901BC01CD010E94BE13882364F08CA14D
:100FD0009DA1AEA1BFA1BC01CD010E948D12DC017B
:100FE000CB01898704C0198602C08FEF8987698584
:100FF0008DE260D98FE696E09F8B8E8B6EE270E07B
:1010000080E090E046DA9C018E899F89FC0137835D
:10101000268388A199A1AAA1BBA111E020E030E01C
:101020004FE753E4BC01CD010E94841218160CF462
:1010300010E081E08127882341F080E090E0AFE775
:10104000B3E488A399A3AAA3BBA388A199A1AAA149
:10105000BBA111E020E030E0A901BC01CD010E945C
:10106000BE1388230CF410E081E08127882321F04F
:1010700018A219A21AA21BA288A199A1AAA1BBA178
:101080002091750630917606AC01BD01C90188D961
:1010900089E193E08E569F4FFC0180819181FC0194
:1010A00080819181A281B381888F998FAA8FBB8F14
:1010B00080918106909182069D8F8C8F809183060E
:1010C000909184069F8F8E8F8C8D9D8DFC018081E9
:1010D0009181A281B3819C01AD01688D798D8A8D4A
:1010E0009B8D0E94841288232CF41D821E821F82F5
:1010F0001886ADC08C8D9D8D8496FC018081918178
:10110000A281B3819C01AD01688D798D8A8D9B8D03
:101110000E948412882361F48E8D9F8DFC0184A12E
:1011200095A1A6A1B7A18D839E83AF83B8878FC0F9
:101130008C8D9D8D8496FC0180819181A281B381EB
:101140009C01AD01688D798D8A8D9B8D0E94BE13A7
:1011500018162CF41D821E821F82188678C080917A
:10116000890690918A069D878C878C859D85880F3E
:10117000991F880F991F2C8D3D8D820F931FFC01A5
:1011800080819181A281B3819C01AD01688D798DAF
:101190008A8D9B8D0E948412882304F505C08C855E
:1011A0009D8501979D878C878C859D85880F991FCC
:1011B000880F991F2C8D3D8D820F931FFC0180811C
:1011C0009181A281B3819C01AD01688D798D8A8D59
:1011D0009B8D0E948412882314F320C005C08C8547
:1011E0009D8501969D878C878C859D850196880FAE
:1011F000991F880F991F2C8D3D8D820F931FFC0125
:1012000080819181A281B3819C01AD01688D798D2E
:101210008A8D9B8D0E94BE1388230CF78C859D853B
:10122000880F991F880F991F2E8D3F8D820F931F56
:10123000FC0180819181A281B3818D839E83AF83E4
:10124000B8878C859D8590938A068093890620E0D7
:1012500030E0A9016D817E818F8198850E94BE1347
:10126000181684F49E012C5D3F4FAE01405E5F4F27
:101270008D819E81AF81B8850BEA12E0BC01CD0162
:101280005BDC0FC09E012C5D3F4FAE01405E5F4FA7
:101290008D819E81AF81B88503EA12E0BC01CD014A
:1012A00084DC8CA19DA1AEA1BFA1BC01CD01C3DC9A
:1012B000DC01CB018CA39DA3AEA3BFA38CA19DA1F8
:1012C000AEA1BFA120E030E040E853E4BC01CD0175
:1012D0000E9484128823DCF48CA19DA1AEA1BFA141
:1012E00020E030E0A901BC01CD010E94BE1388239B
:1012F00064F08CA19DA1AEA1BFA1BC01CD010E9453
:101300008D12DC01CB01898704C0198602C08FEFE2
:10131000898769858BE20E945A0187E696E09F8B58
:101320008E8B6CE270E080E090E0B3D89C018E89F7
:101330009F89FC013783268388A199A1AAA1BBA11B
:1013400011E020E030E04FE753E4BC01CD010E9402
:10135000841218160CF410E081E08127882341F0F4
:1013600080E090E0AFE7B3E488A399A3AAA3BBA36E
:1013700088A199A1AAA1BBA111E020E030E0A901B8
:10138000BC01CD010E94BE1388230CF410E081E063
:101390008127882321F018A219A21AA21BA288A1D2
:1013A00099A1AAA1BBA120916D0630916E06AC0156
:1013B000BD01C9010E94D001AA24A394B12C0F2E13
:1013C000F2EACF2EF2E0DF2EF02DEE24E394F12CA2
:1013D00001EA12E021E030E040EA52E067E776E01F
:1013E0008BE896E0CFD4AA24A394B12C0F2EF2EA76
:1013F000CF2EF2E0DF2EF02DEE24E394F12C01EA63
:1014000012E021E030E040EA52E067E776E08BE866
:1014100096E014D529E133E0C9018C579F4FFC01B8
:1014200080819181A281B3810196A11DB11DA90185
:101430004C575F4FFA0180839183A283B383C90124
:101440008C579F4FFC0180819181A281B381BC01A7
:10145000CD010E94B9126B017C0189E193E08857AC
:101460009F4FFC0180819181A281B38129E133E00A
:101470002E563F4FF901008111819C01AD01C7013A
:10148000B6010E94C213DC01CB01F8018083918375
:10149000A283B38329E133E0C90184579F4FFC0144
:1014A00080819181A281B3810196A11DB11D245734
:1014B0003F4FF90180839183A283B3830000A796F5
:1014C0000FB6F894DEBF0FBECDBFDF91CF911F9155
:1014D0000F91FF90EF90DF90CF90BF90AF90089565
:1014E000EF92FF920F931F93CF93DF9300D000D022
:1014F0001F921F92CDB7DEB729E133E089E193E077
:1015000020573F4FFC013583248329E133E089E1F3
:1015100093E02E563F4FFC0137AF26AF29E133E071
:1015200089E193E028573F4FFC01338B228B29E15F
:1015300033E089E193E088599F4FFC013183208398
:1015400089E193E029E133E0FC013383228389E1DF
:1015500093E0FC018481958121E030E0FC0131833E
:10156000208389E193E02BEC32E0FC013187208776
:1015700029E133E089E193E02C563F4F8E569F4F8F
:10158000FC013183208389E193E09C0128573F4F80
:101590008DEC9CECACECBDE3F90180839183A283DC
:1015A000B38380E092E090937C0680937B0688E290
:1015B00092E090937E0680937D06109288061092AA
:1015C000870680E592E0909382068093810688E703
:1015D00092E0909384068093830610928A0610927C
:1015E00089061D821E821F8218861A82198211C0E6
:1015F0008D819E81AF81B885809377069093780620
:10160000A0937906B0937A0689819A8101969A838C
:10161000898389819A811816190654F710925F06FA
:1016200081E090E0A0E0B0E08093600690936106D6
:10163000A0936206B093630661E08DE20E943801D8
:1016400081E08093640610926F068FE696E09C839B
:101650008B8381E090E0A0E0B0E0809370069093EF
:101660007106A0937206B0937306E12CF12C8701EA
:1016700020E030E0A9016EE270E080E090E00E949E
:1016800074019C018B819C81FC013783268381E05E
:10169000809374061092570681E090E0A0E0B0E0DD
:1016A0008093580690935906A0935A06B0935B0610
:1016B00061E08BE20E94380181E080935C06109229
:1016C000670687E696E09C838B8381E090E0A0E04C
:1016D000B0E08093680690936906A0936A06B09381
:1016E0006B06E12CF12C870120E030E0A9016CE2CF
:1016F00070E080E090E00E9474019C018B819C81ED
:10170000FC013783268381E080936C0600002896D5
:101710000FB6F894DEBF0FBECDBFDF91CF911F9102
:101720000F91FF90EF900895CF93DF931F921F9238
:10173000CDB7DEB780915F06882319F481E08093EE
:101740005F068FE696E09A83898380916F068823EF
:10175000D1F581E080936F068091700690917106BB
:10176000A0917206B09173060197A105B10559F5D4
:1017700080917406882339F16EE270E080E090E099
:101780000E9449029C0189819A81FC01378326834A
:10179000809175069091760640E050E0BA010E9473
:1017A000D0016EE270E080E090E00E9449029C016E
:1017B00089819A81FC0137832683809175069091F7
:1017C00076060E94240280915706882319F481E04E
:1017D0008093570687E696E09A838983809167060F
:1017E0008823D1F581E08093670680916806909107
:1017F0006906A0916A06B0916B060197A105B10533
:1018000059F580916C06882339F16CE270E080E034
:1018100090E00E9449029C0189819A81FC013783F2
:10182000268380916D0690916E0640E050E0BA01EB
:101830000E94D0016CE270E080E090E00E944902DA
:101840009C0189819A81FC013783268380916D06F2
:1018500090916E060E94240200000F900F90DF917D
:10186000CF910895CF93DF931F921F92CDB7DEB72C
:101870009A83898389819A818231910509F1833123
:10188000910534F48230910561F0039769F01BC033
:101890008431910579F0843191057CF0459739F0D8
:1018A00012C080E090E011C081E090E00EC082E0C4
:1018B00090E00BC083E090E008C084E090E005C0B9
:1018C00085E090E002C08FEF9FEF0F900F90DF91C7
:1018D000CF910895CF93DF9300D01F92CDB7DEB79D
:1018E0009C838B831A82198239C089819A81092E3F
:1018F000000CAA0BBB0BBC01CD013DD6DC01CB011A
:1019000020E030E0A901BC01CD0187D5DC01CB018D
:1019100020E030E0A901BC01CD017FD5DC01CB0185
:1019200020E030E040E450E4BC01CD0176D5DC019C
:10193000CB0120E030E040E450E4BC01CD016CD5A7
:10194000DC01CB01BC01CD01E3D5DC01CB019A83E5
:10195000898389819A8101969A83898329813A8131
:101960008B819C81281739070CF4BFCF00000F90A2
:101970000F900F900F90DF91CF910895CF93DF9349
:1019800000D01F92CDB7DEB78091B7039091B80316
:101990000E94341C9A8389838091BB039091BC037D
:1019A00099DF8091B5039091B6030E94341C9C830B
:1019B0008B838B819C810197C1F489819A81892BCA
:1019C00051F48091B9039091BA0301969093BA03B0
:1019D0008093B90321C08091B9039091BA03019714
:1019E0009093BA038093B90317C089819A810197B4
:1019F00051F48091B9039091BA0301969093BA0380
:101A00008093B90309C08091B9039091BA030197FB
:101A10009093BA038093B90300000F900F900F903A
:101A20000F90DF91CF910895CF93DF9300D01F9255
:101A3000CDB7DEB78091B5039091B6030E94341CF8
:101A40009A8389838091BB039091BC0343DF80918B
:101A5000B7039091B8030E94341C9C838B838B81C5
:101A60009C810197C1F489819A81019751F48091F9
:101A7000B9039091BA0301969093BA038093B90386
:101A800021C08091B9039091BA0301979093BA0352
:101A90008093B90317C089819A81892B51F4809171
:101AA000B9039091BA0301969093BA038093B90356
:101AB00009C08091B9039091BA0301979093BA033A
:101AC0008093B90300000F900F900F900F90DF915B
:101AD000CF910895CF93DF9300D01F92CDB7DEB79B
:101AE0008091BF039091C0030E94341C9A83898324
:101AF0008091C3039091C403EDDE8091BD0390916A
:101B0000BE030E94341C9C838B838B819C81019734
:101B1000C1F489819A81892B51F48091C1039091FC
:101B2000C20301969093C2038093C10321C08091A8
:101B3000C1039091C20301979093C2038093C103A4
:101B400017C089819A81019751F48091C1039091C6
:101B5000C20301969093C2038093C10309C0809190
:101B6000C1039091C20301979093C2038093C10374
:101B700000000F900F900F900F90DF91CF9108957C
:101B8000CF93DF9300D01F92CDB7DEB78091BD0316
:101B90009091BE030E94341C9A8389838091C30371
:101BA0009091C40397DE8091BF039091C0030E947F
:101BB000341C9C838B838B819C810197C1F4898128
:101BC0009A81019751F48091C1039091C2030196CB
:101BD0009093C2038093C10321C08091C10390916F
:101BE000C20301979093C2038093C10317C08981F8
:101BF0009A81892B51F48091C1039091C20301967F
:101C00009093C2038093C10309C08091C103909156
:101C1000C20301979093C2038093C10300000F9009
:101C20000F900F900F90DF91CF910895CF93DF9396
:101C300000D01F92CDB7DEB78091C7039091C80343
:101C40000E94341C9A8389838091CB039091CC03AA
:101C500041DE8091C5039091C6030E94341C9C8391
:101C60008B838B819C810197C1F489819A81892B17
:101C700051F48091C9039091CA0301969093CA03CD
:101C80008093C90321C08091C9039091CA03019731
:101C90009093CA038093C90317C089819A810197E1
:101CA00051F48091C9039091CA0301969093CA039D
:101CB0008093C90309C08091C9039091CA03019719
:101CC0009093CA038093C90300000F900F900F9068
:101CD0000F90DF91CF910895CF93DF9300D01F92A3
:101CE000CDB7DEB78091C5039091C6030E94341C26
:101CF0009A8389838091CB039091CC03EBDD809113
:101D0000C7039091C8030E94341C9C838B838B81F2
:101D10009C810197C1F489819A81019751F4809146
:101D2000C9039091CA0301969093CA038093C90393
:101D300021C08091C9039091CA0301979093CA036F
:101D40008093C90317C089819A81892B51F48091AE
:101D5000C9039091CA0301969093CA038093C90363
:101D600009C08091C9039091CA0301979093CA0357
:101D70008093C90300000F900F900F900F90DF9198
:101D8000CF910895AF92BF92CF92DF92EF92FF92E0
:101D90000F931F93CF93DF93CDB7DEB760970FB646
:101DA000F894DEBF0FBECDBF9A8389837C836B839B
:101DB0005E834D8338872F831A870987FC86EB86DD
:101DC000DE86CD86B88AAF868B819C81FC018081BE
:101DD0009181A281B38120E030E040E85FE3BC0163
:101DE000CD0192D3882309F017C08D819E81FC011B
:101DF0008081082E000C990B880F991F880F991F5E
:101E0000880F991F87549C4FFC0120813181898163
:101E10009A81FC0131832083000060960FB6F8940C
:101E2000DEBF0FBECDBFDF91CF911F910F91FF900D
:101E3000EF90DF90CF90BF90AF900895AF92BF9298
:101E4000CF92DF92EF92FF920F931F93CF93DF9386
:101E5000CDB7DEB760970FB6F894DEBF0FBECDBF2B
:101E60009A8389837C836B835E834D8338872F833A
:101E70001A870987FC86EB86DE86CD86B88AAF8610
:101E80008B819C81FC0180819181A281B38120E0C2
:101E900030E040E85FE3BC01CD0136D3882309F48C
:101EA000E0C089859A85FC0120818D819E81FC019D
:101EB0008081082E000C990B022E000C330B880F2A
:101EC000991F880F991F880F991F8B549C4FFC01F5
:101ED000318320838D859E85FC0120818D819E81AB
:101EE000FC018081082E000C990B022E000C330B94
:101EF000880F991F880F991F880F991F89549C4F2D
:101F0000FC01318320838D819E81FC018081082E1C
:101F1000000C990B880F991F880F991F880F991F24
:101F20008B549C4FFC018081918160E00E940D1ACE
:101F30008D819E81FC018081082E000C990B880FF9
:101F4000991F880F991F880F991F89549C4FFC0176
:101F50008081918160E00E940D1A8D819E81FC013B
:101F60008081082E000C990B880F991F880F991FEC
:101F7000880F991F8B549C4FFC018081918161E0F7
:101F80000E94AC1B8D819E81FC018081082E000C7B
:101F9000990B880F991F880F991F880F991F8954D3
:101FA0009C4FFC018081918161E00E94AC1B8D817E
:101FB0009E81FC018081082E000C990B81309105D7
:101FC000D9F08230910569F1892B09F03FC08091E9
:101FD000B5039091B60346DC41E050E06EEB7CE047
:101FE0003CD48091B7039091B8033CDC41E050E0D1
:101FF00064E17DE032D42AC08091BD039091BE039C
:1020000031DC41E050E06AE67DE027D48091BF03F7
:102010009091C00327DC41E050E060EC7DE01DD4EE
:1020200015C08091C5039091C6031CDC41E050E0CF
:1020300066E17EE012D48091C7039091C80312DC60
:1020400041E050E06CE67EE008D400002B813C814A
:1020500080E090E0A0E8BFE3F90180839183A28350
:10206000B383000060960FB6F894DEBF0FBECDBFFD
:10207000DF91CF911F910F91FF90EF90DF90CF9064
:10208000BF90AF900895CF93DF93CDB7DEB726E032
:1020900030E040E855E260E070E080E090E004D09D
:1020A0000000DF91CF910895CF93DF9300D000D04F
:1020B00000D01F92CDB7DEB79C838B834D835E83A8
:1020C0006F8378873A8729871092CE031092CD03C9
:1020D00089859A859A8389838B819C81813091053A
:1020E00061F1823091051CF4892B49F086C0823061
:1020F000910509F440C0039709F45AC07EC080914D
:10210000CD039091CE0381709927892B09F06EC081
:102110008091CD039091CE0381609093CE03809304
:10212000CD0329818D819E81AF81B885AC01BD0130
:1021300083EE93E00E94231D60C08091CD039091B7
:10214000CE0382709927892B09F052C08091CD036C
:102150009091CE0382609093CE038093CD0329812A
:102160008D819E81AF81B885AC01BD0180E894E08E
:102170000E94231D42C08091CD039091CE038470B4
:102180009927892BB9F58091CD039091CE03846076
:102190009093CE038093CD0329818D819E81AF8161
:1021A000B885AC01BD018DE195E00E94231D25C0DD
:1021B0008091CD039091CE0388709927892BE1F40B
:1021C0008091CD039091CE0388609093CE0380934D
:1021D000CD0329818D819E81AF81B885AC01BD0180
:1021E0008AEB95E00E94231D000007C0000005C097
:1021F000000003C0000001C000002A960FB6F8944A
:10220000DEBF0FBECDBFDF91CF910895CF93DF9397
:10221000CDB7DEB70000DF91CF910895EF92FF9226
:102220000F931F93CF93DF9300D01F921F92CDB7D0
:10223000DEB719823AD6DC01CB018093D3039093A9
:10224000D403A093D503B093D6032091D303309148
:10225000D4034091D5035091D6038091CF03909140
:10226000D003A091D103B091D20379018A01E81A79
:10227000F90A0A0B1B0BD801C701803A9648A14006
:10228000B10508F43CC08091D3039091D403A09190
:10229000D503B091D6038093CF039093D003A0933E
:1022A000D103B093D2033AD000D6DC01CB018A83AC
:1022B0009B83AC83BD838091CF039091D003A09189
:1022C000D103B091D2032A813B814C815D81790198
:1022D0008A01E81AF90A0A0B1B0BD801C701803AD8
:1022E0009648A140B10538F081E090E09093D80382
:1022F0008093D70304C01092D8031092D70381E0D3
:10230000898389810F900F900F900F900F90DF912C
:10231000CF911F910F91FF90EF900895CF93DF938E
:10232000CDB7DEB78091D90391E0980F9093D90390
:10233000882361F081E090E09093D8038093D703E5
:102340008091D90381508093D90307C00E94A406CD
:102350008091D90381508093D903DF91CF91089563
:10236000CF93DF9300D000D01F921F92CDB7DEB77E
:102370008DEC9CECACECBDE389839A83AB83BC838E
:102380001D821E821F82188610928E0610928D0664
:10239000EAD579DE8091DD029091DE02FC011182A6
:1023A00010829ED8F89432DF8091DD029091DE0297
:1023B000FC018081918121E0892B09F020E0822FAE
:1023C00080938D06789417C08091DD029091DE0293
:1023D000FC018081918121E0892B09F420E0822F8A
:1023E00080938E0690918E0681E0992309F080E01B
:1023F00080938D0613DF80918D06882329F794D969
:10240000F89480E090E028960FB6F894DEBF0FBEF7
:10241000CDBFDF91CF9108955058BB27AA270ED08A
:102420005CC14DD130F052D120F031F49F3F11F416
:102430001EF442C10EF4E095E7FB0FC1E92F5ED117
:1024400080F3BA17620773078407950718F071F4D1
:102450009EF58DC10EF4E0950B2EBA2FA02D0B0129
:10246000B90190010C01CA01A0011124FF27591BD9
:1024700099F0593F50F4503E68F11A16F040A22FDF
:10248000232F342F4427585FF3CF46953795279550
:10249000A795F0405395C9F77EF41F16BA0B620B4F
:1024A000730B840BBAF09150A1F0FF0FBB1F661F96
:1024B000771F881FC2F70EC0BA0F621F731F841FD9
:1024C00048F4879577956795B795F7959E3F08F0FF
:1024D000B3CF9395880F08F09927EE0F97958795BE
:1024E00008952ED180F09F3740F491110EF440C131
:1024F00060E070E080E89FE3089526F01B16611D00
:10250000711D811DB0C0CAC084D008F481E0089557
:1025100004D06894B1112CC10895F8D088F09F5769
:1025200090F0B92F9927B751A0F0D1F0660F771F1F
:10253000881F991F1AF0BA95C9F712C0B13081F0FF
:1025400016D1B1E0089513C1672F782F8827B85F9F
:1025500039F0B93FCCF3869577956795B395D9F760
:102560003EF490958095709561957F4F8F4F9F4F6A
:102570000895E89409C097FB3EF490958095709576
:1025800061957F4F8F4F9F4F9923A9F0F92F96E9BF
:10259000BB279395F695879577956795B795F11134
:1025A000F8CFFAF4BB0F11F460FF1BC06F5F7F4FD1
:1025B0008F4F9F4F16C0882311F096E911C07723E3
:1025C00021F09EE8872F762F05C0662371F096E8EC
:1025D000862F70E060E02AF09A95660F771F881FBB
:1025E000DAF7880F9695879597F90895A9D080F026
:1025F0009F3740F491110EF0BBC060E070E080E8BE
:102600009FEB089526F41B16611D711D811D2BC0C3
:1026100045C0990F0008550FAA0BE0E8FEEF16160B
:102620001706E807F907C0F012161306E407F507C6
:1026300098F0621B730B840B950B39F40A2661F03A
:10264000232B242B252B21F408950A2609F4A140DD
:10265000A6958FEF811D811D089597F99F6780E8EA
:1026600070E060E00895882371F4772321F098509A
:10267000872B762F07C0662311F499270DC0905140
:10268000862B70E060E02AF09A95660F771F881F0E
:10269000DAF7880F9695879597F908959F3F31F05F
:1026A000915020F4879577956795B795880F911D80
:1026B0009695879597F908959FEF80EC08950024EB
:1026C0000A941616170618060906089500240A9497
:1026D00012161306140605060895092E0394000C1D
:1026E00011F4882352F0BB0F40F4BF2B11F460FFAC
:1026F00004C06F5F7F4F8F4F9F4F089557FD9058D5
:10270000440F551F59F05F3F71F04795880F97FBB5
:10271000991F61F09F3F79F087950895121613066F
:102720001406551FF2CF4695F1DF08C0161617069E
:102730001806991FF1CF86957105610508940895D3
:10274000E5DFA0F0BEE7B91788F4BB279F3860F437
:102750001616B11D672F782F8827985FF7CF8695BB
:1027600077956795B11D93959639C8F30895E894C8
:10277000BB2766277727CB0197F908954ADF08F42E
:102780008FEF08950BD0A9CF9ADF28F09FDF18F0C4
:10279000952309F062CF90CF1124EACFAFDFA0F3E9
:1027A000959FD1F3950F50E0551F629FF001729FE6
:1027B000BB27F00DB11D639FAA27F00DB11DAA1F05
:1027C000649F6627B00DA11D661F829F2227B00D52
:1027D000A11D621F739FB00DA11D621F839FA00DDD
:1027E000611D221F749F3327A00D611D231F849F2D
:1027F000600D211D822F762F6A2F11249F57504084
:102800008AF0E1F088234AF0EE0FFF1FBB1F661F1E
:10281000771F881F91505040A9F79E3F510570F0D7
:102820001CCFA6CF5F3FECF3983EDCF386957795FF
:102830006795B795F795E7959F5FC1F7FE2B880FD2
:10284000911D9695879597F90895CF93DF93CDB70E
:10285000DEB70000DF91CF910895CF93DF9300D0D2
:102860001F921F92CDB7DEB789837B836A835D8316
:102870004C838981883008F006C18981882F90E0D7
:10288000880F991F85549D4F2A813B81FC0131831C
:1028900020838981882F90E0092E000CAA0BBB0BA6
:1028A00088309105A105B10508F0EDC0FC0188272D
:1028B000E35AFB4E8F4F0C940124D414EB1465148F
:1028C0007C149714B4140615231589E690E0FC01D6
:1028D0008081982F9C7F8C81292F282B89E690E07E
:1028E000FC0120838DE390E0FC0120818DE390E0EA
:1028F0002160FC012083C7C089E690E0FC01808153
:10290000282F237F8C819D81880F991F880F991F05
:10291000282B89E690E0FC0120838DE390E0FC0108
:1029200020818DE390E02260FC012083ACC089E629
:1029300090E0FC018081282F2F7C8C819D818295E5
:102940009295907F9827807F9827282B89E690E0A2
:10295000FC0120838DE390E0FC0120818DE390E079
:102960002460FC0120838FC089E690E0FC01808117
:10297000282F2F738C819D8100249695879507942D
:10298000969587950794982F802D282B89E690E0BF
:10299000FC0120838DE390E0FC0120818DE390E039
:1029A0002860FC0120836FC08AE690E0FC018081F2
:1029B000982F9C7F8C81292F282B8AE690E0FC01A0
:1029C00020838DE390E0FC0120818DE390E0206185
:1029D000FC01208358C08AE690E0FC018081282F0A
:1029E000237F8C819D81880F991F880F991F282B29
:1029F0008AE690E0FC0120838DE390E0FC012081D9
:102A00008DE390E02062FC0120833DC08AE690E0E7
:102A1000FC018081282F2F7C8C819D81829592954D
:102A2000907F9827807F9827282B8AE690E0FC01EA
:102A300020838DE390E0FC0120818DE390E0206411
:102A4000FC01208320C08AE690E0FC018081282FD1
:102A50002F738C819D810024969587950794969578
:102A600087950794982F802D282B8AE690E0FC010B
:102A700020838DE390E0FC0120818DE390E02068CD
:102A8000FC012083000000000F900F900F900F902A
:102A90000F90DF91CF9108951F920F920FB60F9272
:102AA00011240BB60F922F933F934F935F936F9325
:102AB0007F938F939F93AF93BF93EF93FF93CF93A6
:102AC000DF93CDB7DEB78091BF029091C002FC01C9
:102AD00019950000DF91CF91FF91EF91BF91AF91D8
:102AE0009F918F917F916F915F914F913F912F9126
:102AF0000F900BBE0F900FBE0F901F9018951F9256
:102B00000F920FB60F9211240BB60F922F933F9393
:102B10004F935F936F937F938F939F93AF93BF93E5
:102B2000EF93FF93CF93DF93CDB7DEB78091C102D0
:102B30009091C202FC0119950000DF91CF91FF91A5
:102B4000EF91BF91AF919F918F917F916F915F9125
:102B50004F913F912F910F900BBE0F900FBE0F9092
:102B60001F9018951F920F920FB60F9211240BB65B
:102B70000F922F933F934F935F936F937F938F9316
:102B80009F93AF93BF93EF93FF93CF93DF93CDB713
:102B9000DEB78091C3029091C402FC011995000038
:102BA000DF91CF91FF91EF91BF91AF919F918F9165
:102BB0007F916F915F914F913F912F910F900BBE3D
:102BC0000F900FBE0F901F9018951F920F920FB687
:102BD0000F9211240BB60F922F933F934F935F9355
:102BE0006F937F938F939F93AF93BF93EF93FF93D5
:102BF000CF93DF93CDB7DEB78091C5029091C60227
:102C0000FC0119950000DF91CF91FF91EF91BF91E9
:102C1000AF919F918F917F916F915F914F913F9174
:102C20002F910F900BBE0F900FBE0F901F90189515
:102C30001F920F920FB60F9211240BB60F922F9383
:102C40003F934F935F936F937F938F939F93AF9334
:102C5000BF93EF93FF93CF93DF93CDB7DEB7809110
:102C6000BB029091BC02FC0119950000DF91CF914D
:102C7000FF91EF91BF91AF919F918F917F916F9154
:102C80005F914F913F912F910F900BBE0F900FBE10
:102C90000F901F9018951F920F920FB60F9211244C
:102CA0000BB60F922F933F934F935F936F937F9346
:102CB0008F939F93AF93BF93EF93FF93CF93DF9344
:102CC000CDB7DEB78091BD029091BE02FC0119958F
:102CD0000000DF91CF91FF91EF91BF91AF919F9154
:102CE0008F917F916F915F914F913F912F910F90B5
:102CF0000BBE0F900FBE0F901F9018951F920F9252
:102D00000FB60F9211240BB60F922F933F934F9350
:102D10005F936F937F938F939F93AF93BF93EF9343
:102D2000FF93CF93DF93CDB7DEB78091C702909129
:102D3000C802FC0119950000DF91CF91FF91EF913E
:102D4000BF91AF919F918F917F916F915F914F91C3
:102D50003F912F910F900BBE0F900FBE0F901F90C1
:102D600018951F920F920FB60F9211240BB60F9267
:102D70002F933F934F935F936F937F938F939F9383
:102D8000AF93BF93EF93FF93CF93DF93CDB7DEB7AE
:102D90008091C9029091CA02FC0119950000DF914F
:102DA000CF91FF91EF91BF91AF919F918F917F91C3
:102DB0006F915F914F913F912F910F900BBE0F90AC
:102DC0000FBE0F901F9018951F920F920FB60F9283
:102DD00011248F939F93AF93BF93CF93DF93CDB77E
:102DE000DEB72597DEBFCDBF8091DE039091DF0374
:102DF000A091E003B091E10389839A83AB83BC8304
:102E00008091E2038D8389819A81AB81BC81019697
:102E1000A11DB11D89839A83AB83BC838D818D5F96
:102E20008D838D818D3770F08D818D578D83898154
:102E30009A81AB81BC810196A11DB11D89839A83C2
:102E4000AB83BC838D818093E20389819A81AB81BE
:102E5000BC818093DE039093DF03A093E003B093E3
:102E6000E1038091DA039091DB03A091DC03B09140
:102E7000DD030196A11DB11D8093DA039093DB035E
:102E8000A093DC03B093DD0300000F900F900F9030
:102E90000F900F90DF91CF91BF91AF919F918F9144
:102EA0000F900FBE0F901F901895CF93DF9300D017
:102EB00000D0CDB7DEB78FE590E0FC0180818D8337
:102EC000F8948091DA039091DB03A091DC03B09138
:102ED000DD0389839A83AB83BC8386E490E0FC01A5
:102EE00080818E8385E390E0FC018081882F90E0D3
:102EF00081709927892B71F08E818F3F59F08981DC
:102F00009A81AB81BC810196A11DB11D89839A83F1
:102F1000AB83BC838FE590E02D81FC012083898108
:102F20009A81AB81BC812227382F492F5A2F8E815D
:102F3000882F90E0A0E0B0E0820F931FA41FB51F80
:102F4000880F991FAA1FBB1F880F991FAA1FBB1F9D
:102F5000BC01CD0126960FB6F894DEBF0FBECDBFE3
:102F6000DF91CF910895CF93DF93CDB7DEB77894FB
:102F700084E490E0FC01208184E490E02260FC0184
:102F8000208384E490E0FC01208184E490E02160CF
:102F9000FC01208385E490E0FC01208185E490E041
:102FA0002260FC01208385E490E0FC01208185E41F
:102FB00090E02160FC0120838EE690E0FC012081FE
:102FC0008EE690E02160FC01208381E890E0FC0126
:102FD000108281E890E0FC01208181E890E022608D
:102FE000FC01208381E890E0FC01208181E890E0F1
:102FF0002160FC01208380E890E0FC01208180E8D2
:1030000090E02160FC01208381EB90E0FC012081B5
:1030100081EB90E02460FC01208380EB90E0FC01D8
:10302000208180EB90E02160FC01208381E990E029
:10303000FC01208181E990E02260FC01208381E98C
:1030400090E0FC01208181E990E02160FC01208377
:1030500080E990E0FC01208180E990E02160FC01A2
:10306000208381EA90E0FC01208181EA90E02260E7
:10307000FC01208381EA90E0FC01208181EA90E05C
:103080002160FC01208380EA90E0FC01208180EA3D
:1030900090E02160FC01208381E291E0FC0120812D
:1030A00081E291E02260FC01208381E291E0FC0159
:1030B000208181E291E02160FC01208380E291E0A7
:1030C000FC01208180E291E02160FC0120838AE7FD
:1030D00090E0FC0120818AE790E02460FC012083DD
:1030E0008AE790E0FC0120818AE790E02260FC0101
:1030F00020838AE790E0FC0120818AE790E021604C
:10310000FC0120838AE790E0FC0120818AE790E0BF
:103110002068FC01208381EC90E0FC01108200001B
:10312000DF91CF910895CF93DF9300D000D0CDB73A
:10313000DEB78C837E836D8361E08C816ED18D815F
:103140009E81892B21F460E08C8106D35CC18D8146
:103150009E818F3F910521F461E08C81FDD253C1A6
:103160008C81882F90E082549E4F9A838983898135
:103170009A81FC0184918B838B81882F90E0092EAA
:10318000000CAA0BBB0B0197A109B1098231910573
:10319000A105B10508F02AC1FC018827ED52F74EC0
:1031A0008F4F0C940124E518F418031914192519EC
:1031B000F619361945195419651976198719A1197F
:1031C000B219F619C319D419E51984E490E0FC0189
:1031D000208184E490E02068FC01208387E490E073
:1031E0002D81FC0120830FC184E490E0FC0120814B
:1031F00084E490E02062FC01208388E490E02D814B
:10320000FC01208300C180E890E0FC01208180E87F
:1032100090E02068FC01208388E890E02D813E81C9
:10322000FC0131832083EFC080E890E0FC01208125
:1032300080E890E02062FC0120838AE890E02D8104
:103240003E81FC0131832083DEC080E890E0FC01F8
:10325000208180E890E02860FC0120838CE890E0E9
:103260002D813E81FC0131832083CDC080EB90E035
:10327000FC01208180EB90E02068FC01208383EB3F
:1032800090E02D81FC012083BEC080EB90E0FC012A
:10329000208180EB90E02062FC01208384EB90E0B1
:1032A0002D81FC012083AFC080E990E0FC012081EA
:1032B00080E990E02068FC01208388E990E02D817E
:1032C0003E81FC01318320839EC080E990E0FC01B7
:1032D000208180E990E02062FC0120838AE990E06F
:1032E0002D813E81FC01318320838DC080E990E0F7
:1032F000FC01208180E990E02860FC0120838CE9BA
:1033000090E02D813E81FC01318320837CC080EAE6
:1033100090E0FC01208180EA90E02068FC0120839D
:1033200080EA90E0FC01208180EA90E02F7BFC01A4
:10333000208388EA90E02D813E81FC013183208347
:1033400062C080EA90E0FC01208180EA90E0206287
:10335000FC0120838AEA90E02D813E81FC013183CB
:10336000208351C080EA90E0FC01208180EA90E057
:103370002860FC0120838CEA90E02D813E81FC01D5
:103380003183208340C080E291E0FC01208180E213
:1033900091E02068FC01208388E291E02D813E814C
:1033A000FC01318320832FC080E291E0FC01208169
:1033B00080E291E02062FC0120838AE291E02D818D
:1033C0003E81FC01318320831EC080E291E0FC013C
:1033D000208180E291E02860FC0120838CE291E072
:1033E0002D813E81FC01318320830DC08D819E8122
:1033F0008038910524F460E08C81AED104C061E096
:103400008C81AAD100C0000026960FB6F894DEBFCA
:103410000FBECDBFDF91CF910895CF93DF93CDB78E
:10342000DEB769970FB6F894DEBF0FBECDBF888FA9
:10343000698F888D882F90E088589E4F9A83898362
:1034400089819A81FC0184918B838B818C83888D07
:10345000882F90E08E5C9E4F9E838D838D819E8110
:10346000FC0184918F838F8188878885882309F464
:1034700095C08885882F90E0880F991F8C519F4FA9
:103480009A87898789859A85FC0125913491CF0196
:103490003C872B879A8789878B859C859E878D871C
:1034A0008885882F90E0880F991F82509F4F988BB6
:1034B0008F878F859889FC0125913491CF013A8BB4
:1034C000298B988B8F8789899A899C8B8B8B898D87
:1034D000882331F58FE590E0FC0180818F8BF89493
:1034E0008D859E85FC018081982F8C818095892314
:1034F000282F8D859E85FC0120838B899C89FC016A
:103500008081982F8C8180958923282F8B899C8995
:10351000FC0120838FE590E02F89FC0120833FC0D0
:10352000898D823021F58FE590E0FC0180818E8BC2
:10353000F8948D859E85FC018081982F8C818095E3
:103540008923282F8D859E85FC0120838B899C896A
:10355000FC0190818C81292F282B8B899C89FC016F
:1035600020838FE590E02E89FC01208318C08FE531
:1035700090E0FC0180818D8BF8948D859E85FC0107
:1035800090818C81292F282B8D859E85FC0120839D
:103590008FE590E02D89FC01208301C00000699631
:1035A0000FB6F894DEBF0FBECDBFDF91CF91089567
:1035B000CF93DF931F92CDB7DEB789838981882FA0
:1035C00090E0092E000CAA0BBB0B0197A109B109D1
:1035D00082319105A105B10508F0B9C0FC01882729
:1035E000EB50F54E8F4F0C940124251B2F1B071B0E
:1035F000111B1B1BA71B391B431B4D1B571B611B9F
:103600006B1B751B7F1BA71B891B931B9D1B80E8D6
:1036100090E0FC01208180E890E02F77FC0120837E
:1036200096C080E890E0FC01208180E890E02F7D4A
:10363000FC0120838CC080E890E0FC01208180E8C0
:1036400090E0277FFC01208382C084E490E0FC01AD
:10365000208184E490E02F77FC01208378C084E40B
:1036600090E0FC01208184E490E02F7DFC01208328
:103670006EC080EB90E0FC01208180EB90E02F7722
:10368000FC01208364C080EB90E0FC01208180EB92
:1036900090E02F7DFC0120835AC080E990E0FC017E
:1036A000208180E990E02F77FC01208350C080E9E1
:1036B00090E0FC01208180E990E02F7DFC012083D7
:1036C00046C080E990E0FC01208180E990E0277FFE
:1036D000FC0120833CC080EA90E0FC01208180EA6C
:1036E00090E02F77FC01208332C080EA90E0FC015B
:1036F000208180EA90E02F7DFC01208328C080EAB1
:1037000090E0FC01208180EA90E0277FFC0120838B
:103710001EC080E291E0FC01208180E291E02F77E1
:10372000FC01208314C080E291E0FC01208180E252
:1037300091E02F7DFC0120830AC080E291E0FC0132
:10374000208180E291E0277FFC01208300000000BF
:103750000F90DF91CF910895CF93DF93CDB7DEB770
:1037600065970FB6F894DEBF0FBECDBF8C8B6D8B07
:103770008C89882F90E082549E4F9A838983898117
:103780009A81FC0184918B838B818C838C89882F17
:1037900090E088589E4F9E838D838D819E81FC0191
:1037A00084918F838F8188878C89882F90E08E5CAD
:1037B0009E4F9A87898789859A85FC0184918B879A
:1037C0008B858C878C85882309F444C08C81882361
:1037D00011F08C81EDDE8C85882F90E0880F991F89
:1037E00082509F4F9E878D878D859E85FC012591F8
:1037F0003491CF01388B2F879E878D878F8598894D
:103800009A8B898B8FE590E0FC0180818B8BF894FB
:103810008D89882371F489899A89FC018081982F88
:10382000888580958923282F89899A89FC0120839E
:103830000BC089899A89FC0190818885292F282BC2
:1038400089899A89FC0120838FE590E02B89FC010E
:10385000208301C0000065960FB6F894DEBF0FBE4E
:10386000CDBFDF91CF910895CF93DF93CDB7DEB772
:1038700061970FB6F894DEBF0FBECDBF898B8989E3
:10388000882F90E082549E4F9A83898389819A8100
:10389000FC0184918B838B818C838989882F90E0B4
:1038A00088589E4F9E838D838D819E81FC018491DB
:1038B0008F838F8188878989882F90E08E5C9E4FC7
:1038C0009A87898789859A85FC0184918B878B8566
:1038D0008C878C85882319F480E090E025C08C814A
:1038E000882311F08C8164DE8C85882F90E0880F0E
:1038F000991F885E9E4F9E878D878D859E85FC01D2
:1039000025913491CF01388B2F879E878D878F85A6
:103910009889FC01908188858923882319F081E0AA
:1039200090E002C080E090E061960FB6F894DEBFB0
:103930000FBECDBFDF91CF910895CF93DF93CDB769
:10394000DEB7F89481E0DF91CF910895CF93DF93B4
:103950001F921F92CDB7DEB79A8389838FE590E0DF
:1039600029813A81F9012081FC01208300000F9018
:103970000F90DF91CF910895CF93DF9300D0CDB713
:10398000DEB79B838A838A819B81FC01848D882F8B
:1039900090E02A813B81820F931F835A9F4FFC0145
:1039A000808189838A819B81FC01848D882F90E0AE
:1039B00001968F739078992324F40197806C9F6F00
:1039C0000196282F8A819B81FC01248F8A819B810B
:1039D000FC01868997892981FC0120838A819B814A
:1039E000FC0180899189FC0180818370282F2064EB
:1039F0008A819B81FC0180899189FC0120838A81D5
:103A00009B81FC01238D8A819B81FC01948D81E047
:103A1000291709F080E0882379F08A819B81FC01D5
:103A200082899389FC0120818A819B81FC018289A2
:103A300093892F7DFC01208300000F900F900F9041
:103A4000DF91CF910895CF93DF9300D000D000D0C5
:103A5000CDB7DEB79C838B834D835E836F8378877E
:103A6000298780E099E0ADE3B0E02D813E814F8170
:103A70005885BC01CD01A3D6DA01C9010197A1097E
:103A8000B109B695A795979587959A8389838B8178
:103A90009C81FC018089918922E0FC0120838D8139
:103AA0009E81AF81B8858115914EA105B10529F0A0
:103AB00089819A8181159041E8F08B819C81FC017C
:103AC00080899189FC01108280E894E8AEE1B0E041
:103AD0002D813E814F815885BC01CD0170D6DA0120
:103AE000C9010197A109B109B695A7959795879541
:103AF0009A83898389819A81292F33278B819C819D
:103B0000FC0184859585FC0120838B819C81FC01CF
:103B1000868597852981FC0120838B819C81FC010E
:103B2000108E8B819C81FC01848995892985FC01FB
:103B300020838B819C81FC0182899389FC012081F7
:103B40008B819C81FC01828993892061FC01208307
:103B50008B819C81FC0182899389FC0120818B816E
:103B60009C81FC01828993892860FC0120838B81E0
:103B70009C81FC0182899389FC0120818B819C813D
:103B8000FC01828993892068FC0120838B819C81C0
:103B9000FC0182899389FC0120818B819C81FC013D
:103BA000828993892F7DFC012083000029960FB61E
:103BB000F894DEBF0FBECDBFDF91CF910895CF93B4
:103BC000DF931F921F92CDB7DEB79A8389838981D5
:103BD0009A81FC01818D882F90E09C01205C3F4FF1
:103BE00089819A81FC01828D882F90E0A901481B70
:103BF000590BCA018F7399270F900F90DF91CF91C6
:103C00000895CF93DF931F921F92CDB7DEB79A83AB
:103C1000898389819A81FC01218D89819A81FC01A6
:103C2000928D81E0291709F080E0882319F08FEF49
:103C30009FEF0FC089819A81FC01828D882F90E0CF
:103C400029813A81820F931F4D96FC018081882F34
:103C500090E00F900F90DF91CF910895CF93DF9375
:103C600000D0CDB7DEB79B838A838A819B81FC011C
:103C7000218D8A819B81FC01928D81E0291709F0B9
:103C800080E0882319F08FEF9FEF1CC08A819B8111
:103C9000FC01828D882F90E02A813B81820F931F47
:103CA0004D96FC01808189838A819B81FC01828DF4
:103CB0008F5F282F2F738A819B81FC01228F89813E
:103CC000882F90E00F900F900F90DF91CF91089583
:103CD000CF93DF9300D01F92CDB7DEB79C838B8349
:103CE0008B819C81FC01838D89838B819C81FC016C
:103CF000848D8A8399818A81981768F08981882FB9
:103D000090E02FE330E0281B390B8A81882F90E068
:103D1000820F931F0BC08A81282F30E08981882F62
:103D200090E0A901481B590BCA0101970F900F9011
:103D30000F900F90DF91CF910895CF93DF931F9253
:103D40001F92CDB7DEB79A83898389819A81FC015E
:103D5000908D81E08927882309F04DC089819A815F
:103D6000FC0182899389FC018081882F90E0807218
:103D70009927892B69F489819A81FC01808991892D
:103D8000FC018081882F90E080749927892B11F4A1
:103D900081E001C080E0882379F18FE590E0FC01AB
:103DA000808188237CF089819A81FC0182899389B2
:103DB000FC018081882F90E080729927892B11F077
:103DC00081E001C080E0882349F289819A81FC0169
:103DD00080899189FC018081882F90E080729927E9
:103DE00021E0892B09F420E0222309F4B7CF89814F
:103DF0009A81C2DDB3CF00000F900F90DF91CF9179
:103E00000895CF93DF9300D000D01F921F92CDB7BB
:103E1000DEB79F838E8368878E819F8121E0FC01BE
:103E2000208F8E819F81FC01238D8E819F81FC01DB
:103E3000848D281779F48E819F81FC018089918976
:103E4000FC018081882F90E080729927892B11F0E6
:103E500081E001C080E0882359F18FE590E0FC010A
:103E600080818C836ADD898389818823D9F08E8162
:103E70009F81FC01868997892885FC0120838E819A
:103E80009F81FC0180899189FC0180818370282FAA
:103E900020648E819F81FC0180899189FC012083AF
:103EA0001982E2CFCE01049651DD81E090E06EC030
:103EB0008E819F81FC01838D882F90E001968F7306
:103EC0009078992324F40197806C9F6F01968B83DF
:103ED0008E819F81FC01948D81E02B81291709F04F
:103EE00080E08823F9F08FE590E0FC0180818095E7
:103EF000881F8827881F882359F38E819F81FC01A2
:103F000080899189FC018081882F90E080729927B7
:103F100021E0892B09F420E02223D1F28E819F81B8
:103F20002BDDD6CF8E819F81FC01838D882F90E081
:103F30002E813F81820F931F835A9F4F2885FC015A
:103F400020838FE590E0FC0180818D83F6DC8A83FD
:103F50008A818823B1F08E819F812B81FC01238F80
:103F60008E819F81FC0182899389FC0120818E8151
:103F70009F81FC01828993892062FC0120831A823F
:103F8000E7CFCE010596E2DC81E090E028960FB6FF
:103F9000F894DEBF0FBECDBFDF91CF910895CF93D0
:103FA000DF931F921F92CDB7DEB79A83898327E0F4
:103FB00033E089819A81FC013183208389819A8150
:103FC000FC011382128200000F900F90DF91CF91BD
:103FD0000895CF93DF931F921F92CDB7DEB79A83D8
:103FE000898380E090E00F900F90DF91CF9108954A
:103FF000CF93DF931F921F92CDB7DEB79A83898349
:1040000000000F900F90DF91CF910895CF93DF9331
:104010001F921F92CDB7DEB79A83898389819A81D7
:10402000BEDF25EF32E089819A81FC013183208354
:1040300029813A8188EE93E0A0E0B0E0F901848321
:104040009583A683B78300000F900F90DF91CF91E7
:104050000895CF92DF92EF92FF920F931F93CF9329
:10406000DF93CDB7DEB72E970FB6F894DEBF0FBE45
:10407000CDBF9A8389837C836B835E834D8338872E
:104080002F831A870987FC86EB86DE86CD86898199
:104090009A81BCDF23EE32E089819A81FC01318371
:1040A000208389819A812B813C81FC01358724877B
:1040B00089819A812D813E81FC01378726878981FC
:1040C0009A812F813885FC01318B208B89819A81DF
:1040D00029853A85FC01338B228B89819A812B8536
:1040E0003C85FC01358B248B89819A812D853E8509
:1040F000FC01378B268B89819A81FC01118E898185
:104100009A81FC01128E89819A81FC01138E89812A
:104110009A81FC01148E00002E960FB6F894DEBF33
:104120000FBECDBFDF91CF911F910F91FF90EF9008
:10413000DF90CF900895CF93DF9300D01F92CDB73B
:10414000DEB79C838B838B819C81FC018089918964
:10415000FC018081882F90E08470992721E0892BD1
:1041600009F020E0222371F18B819C81FC0186897A
:104170009789FC01808189838B819C81FC01818DE1
:104180008F5F8F738A838B819C81FC01928D81E08C
:104190002A81291709F480E08823D9F08B819C813A
:1041A000FC01818D882F90E02B813C81820F931F31
:1041B0004D962981FC0120838B819C812A81FC0101
:1041C000218F07C08B819C81FC0186899789FC0126
:1041D000808100000F900F900F900F90DF91CF9192
:1041E00008951F920F920FB60F9211240BB60F92E3
:1041F0002F933F934F935F936F937F938F939F93EF
:10420000AF93BF93EF93FF93CF93DF93CDB7DEB719
:1042100083EE93E090DF0000DF91CF91FF91EF916B
:10422000BF91AF919F918F917F916F915F914F91CE
:104230003F912F910F900BBE0F900FBE0F901F90CC
:1042400018951F920F920FB60F9211240BB60F9272
:104250002F933F934F935F936F937F938F939F938E
:10426000AF93BF93EF93FF93CF93DF93CDB7DEB7B9
:1042700083EE93E081DB0000DF91CF91FF91EF911E
:10428000BF91AF919F918F917F916F915F914F916E
:104290003F912F910F900BBE0F900FBE0F901F906C
:1042A0001895CF92DF92EF92FF920F931F93CF93C7
:1042B000DF9300D01F92CDB7DEB79A8389837C83CA
:1042C0006B8389819A810197C9F48B819C810196C6
:1042D000A9F40F2EF6ECCF2ED12CF02D0F2EF2ECF0
:1042E000EF2EF12CF02D01EC10E020EC30E044EC4E
:1042F00050E065EC70E083EE93E0ABDE00000F90E1
:104300000F900F900F90DF91CF911F910F91FF9021
:10431000EF90DF90CF900895CF93DF93CDB7DEB7C6
:104320006FEF7FEF81E090E0BCDFDF91CF910895E8
:104330001F920F920FB60F9211240BB60F922F936C
:104340003F934F935F936F937F938F939F93AF931D
:10435000BF93EF93FF93CF93DF93CDB7DEB780E8A2
:1043600094E0E9DE0000DF91CF91FF91EF91BF91E2
:10437000AF919F918F917F916F915F914F913F91FD
:104380002F910F900BBE0F900FBE0F901F9018959E
:104390001F920F920FB60F9211240BB60F922F930C
:1043A0003F934F935F936F937F938F939F93AF93BD
:1043B000BF93EF93FF93CF93DF93CDB7DEB780E842
:1043C00094E0DADA0000DF91CF91FF91EF91BF9195
:1043D000AF919F918F917F916F915F914F913F919D
:1043E0002F910F900BBE0F900FBE0F901F9018953E
:1043F000CF92DF92EF92FF920F931F93CF93DF93B1
:1044000000D01F92CDB7DEB79A8389837C836B83FC
:1044100089819A810197C9F48B819C810196A9F4C5
:104420000F2EFEECCF2ED12CF02D0F2EFAECEF2E0E
:10443000F12CF02D09EC10E028EC30E04CEC50E0D1
:104440006DEC70E080E894E004DE00000F900F90C7
:104450000F900F90DF91CF911F910F91FF90EF90F0
:10446000DF90CF900895CF93DF93CDB7DEB76FEF96
:104470007FEF81E090E0BCDFDF91CF9108951F9244
:104480000F920FB60F9211240BB60F922F933F93FA
:104490004F935F936F937F938F939F93AF93BF934C
:1044A000EF93FF93CF93DF93CDB7DEB78DE195E028
:1044B00042DE0000DF91CF91FF91EF91BF91AF916C
:1044C0009F918F917F916F915F914F913F912F912C
:1044D0000F900BBE0F900FBE0F901F9018951F925C
:1044E0000F920FB60F9211240BB60F922F933F939A
:1044F0004F935F936F937F938F939F93AF93BF93EC
:10450000EF93FF93CF93DF93CDB7DEB78DE195E0C7
:1045100033DA0000DF91CF91FF91EF91BF91AF911E
:104520009F918F917F916F915F914F913F912F91CB
:104530000F900BBE0F900FBE0F901F901895CF924B
:10454000DF92EF92FF920F931F93CF93DF9300D0F0
:104550001F92CDB7DEB79A8389837C836B83898171
:104560009A810197C9F48B819C810196A9F40F2E41
:10457000F6EDCF2ED12CF02D0F2EF2EDEF2EF12CEB
:10458000F02D01ED10E020ED30E044ED50E065ED60
:1045900070E08DE195E05DDD00000F900F900F90D1
:1045A0000F90DF91CF911F910F91FF90EF90DF90CF
:1045B000CF900895CF93DF93CDB7DEB76FEF7FEF46
:1045C00081E090E0BCDFDF91CF9108951F920F92C0
:1045D0000FB60F9211240BB60F922F933F934F9368
:1045E0005F936F937F938F939F93AF93BF93EF935B
:1045F000FF93CF93DF93CDB7DEB78AEB95E09BDDDA
:104600000000DF91CF91FF91EF91BF91AF919F910A
:104610008F917F916F915F914F913F912F910F906B
:104620000BBE0F900FBE0F901F9018951F920F9208
:104630000FB60F9211240BB60F922F933F934F9307
:104640005F936F937F938F939F93AF93BF93EF93FA
:10465000FF93CF93DF93CDB7DEB78AEB95E08CD98C
:104660000000DF91CF91FF91EF91BF91AF919F91AA
:104670008F917F916F915F914F913F912F910F900B
:104680000BBE0F900FBE0F901F901895CF92DF9228
:10469000EF92FF920F931F93CF93DF9300D01F925F
:1046A000CDB7DEB79A8389837C836B8389819A81B6
:1046B0000197D9F48B819C810196B9F40F2EF6E312
:1046C000CF2EDD24D394F02D0F2EF2E3EF2EFF2416
:1046D000F394F02D01E311E020E331E044E351E0F5
:1046E00065E371E08AEB95E0B4DC00000F900F9079
:1046F0000F900F90DF91CF911F910F91FF90EF904E
:10470000DF90CF900895CF93DF93CDB7DEB76FEFF3
:104710007FEF81E090E0BADFDF91CF910895CF93F2
:10472000DF9300D000D01F921F92CDB7DEB79C83DD
:104730008B837E836D8358874F831A8219828F8182
:1047400098859C012150310938872F8321E0892BDE
:1047500009F420E0222319F18B819C81FC018081E6
:104760009181FC01208131818D819E81AC014F5F5F
:104770005F4F5E834D83FC0140818B819C81642F60
:10478000F901199521E0892B09F420E0222331F069
:1047900089819A8101969A838983D1CF000089818A
:1047A0009A8128960FB6F894DEBF0FBECDBFDF9179
:1047B000CF910895CF93DF93CDB7DEB72AD0A1E292
:1047C0001A2EAA1BBB1BFD010DC0AA1FBB1FEE1F8B
:1047D000FF1FA217B307E407F50720F0A21BB30BD6
:1047E000E40BF50B661F771F881F991F1A9469F752
:1047F00060957095809590959B01AC01BD01CF01AE
:104800000895EE0FFF1F881F8BBF0790F691E02DD4
:0E481000199481E090E0F89400C0F894FFCF76
:10481E00000000000000A0400000A0400000E040AA
:10482E000000E04000001041000010410000304147
:10483E000000304100005041000000000000000068
:10484E0000009642000096420000000000000000AA
:10485E00000096C2000096C200000000000000009A
:10486E00000000000000A0400000A0400000E0405A
:10487E000000E040000010410000104100003041F7
:10488E000000304100005041000000000000000018
:10489E00000096C2000096C200000000000000005A
:1048AE00000096420000964200000000000000004A
:1048BE000012130000803F000080BF0000000000C7
:1048CE0000803F000080BF00000000251425142545
:1048DE0014251425142514251425144669786564A9
:1048EE0053746570446973637265746500190300CF
:1048FE00000000011F8F23681E9D1EDF1D2E1E014E
:10490E001E00000000DA238F23E91FF81FDA23DAD6
:10491E0023DA2300000000DA238F23E91FF81F009B
:00000001FF
